:020000040800F2
:100000004805002045010008DF1F00088718000888
:10001000DD1F0008230A000841220008000000003C
:10002000000000000000000000000000BD200008EB
:10003000250A000800000000E11F0008BF2000089A
:100040005F0100085F0100085F0100085F01000810
:100050005F0100085F0100085F0100085F01000800
:100060005F0100085F0100085F0100085F010008F0
:100070005F0100085F0100085F0100085F010008E0
:100080005F0100085F0100085F0100085F010008D0
:100090005F0100085F0100085F0100085F010008C0
:1000A0005F0100085F0100085F0100085F010008B0
:1000B0005F0100085F0100085F0100085F010008A0
:1000C0005F0100085F0100085F0100085F01000890
:1000D0005F0100085F0100085F0100085F01000880
:1000E0005F0100085F0100085F0100085F01000870
:1000F0005F0100085F0100085F0100085F01000860
:100100005F0100085F0100085F0100085F0100084F
:100110005F0100085F0100085F0100085F0100083F
:100120005F0100085F0100085F0100085F0100082F
:10013000DFF80CD000F012FC004800477D340008C6
:10014000480500200648804706480047FEE7FEE7CE
:10015000FEE7FEE7FEE7FEE7FEE7FEE7FEE7FEE777
:100160002121000831010008202A04DB203A21FA6D
:1001700002F00021704721FA02F3D040C2F12002C0
:100180009140084319467047D2B201E000F8012BB4
:10019000491EFBD270470022F6E710B513460A4607
:1001A00004461946FFF7F0FF204610BDF0B480EA80
:1001B0000102D40F4200B2EB410F02D202460846C0
:1001C00011464A0042D0C30DDDB2C1F3C752AD1A89
:1001D000202D35DAC1F3160141F4000204B1524278
:1001E000C5F1200602FA06F12A411044B3EBD05FB4
:1001F00023D0C4B1012DA0EBC35009DCF0BC4FF0FB
:10020000004202EAC352DBB200F5000000F0D3BAAC
:10021000400000F1807000EBC350A0F1807040EA14
:10022000D170490009E0490841EAC071A0EBC35010
:1002300000F50000400800EBC350F0BC00F0B2BA7B
:100240006142012202EB4101001BF6E7F0BC70475E
:1002500081F00041AAE780F00040A7E780EA0102B0
:1002600010B502F00043400022D04A001FD0010E1A
:1002700001EB1261C0F35600C2F3560240F40000D5
:1002800042F40002A0FB022000047F39140400D0D5
:10029000401C50EA124001D44000491EC2B20C0674
:1002A00004EBD010401C4008802A02D003E000205C
:1002B00010BD20F00100002900DA0020184310BD15
:1002C00030B480EA010202F0004530F0004221F033
:1002D000004013D090B1C30DD40DC2F31601C0F38A
:1002E0001600E41A41F4000140F400027D3491420A
:1002F00001D3641C00E04900002C02DA30BC00206D
:1003000070474FF400000023914201D3891A034340
:1003100040084FEA4101F7D151B1914202D14FF06B
:10032000004105E002D24FF0010101E06FF0010150
:1003300003EBC450284430BC00F034BA420005D06E
:10034000C0F3C7525242914201DC0020704700EBDB
:10035000C15070472DE9FE4F804681EA0300C00F6F
:100360000C46009021F0004123F00045B8EB02005C
:10037000A94105D24046214690461C460B460246FE
:1003800023F00040104347D0270DC7F30A00C3F302
:100390000A510290401A019040286BDAC3F313000F
:1003A00040F4801B0098924620B10023D2EB030A50
:1003B00063EB0B0B01985946C0F14002504600F028
:1003C000D0F906460D4650465946019A00F0D8F934
:1003D00010EB08006141002487EA115284EAE773B8
:1003E0001A4340D0009A62B3019A012A4FEA075299
:1003F00015DC001B61EB02014FF0004202EA0752DC
:10040000CDE90042001C41F5801132462B4600F038
:100410000FFA03B0BDE8F08F40462146F9E7001B14
:1004200061EB0201001C41F5801300185B412018AC
:10043000A2F5001747EB030140EAD570B6196D41EC
:1004400011E06D084FEA360645EAC0754FEA0752DB
:10045000001B61EB0201001C41F5801149084FEAC5
:1004600030000019514132462B4603B0BDE8F04F31
:1004700000F0CFB90098012240000023D0EB020227
:1004800063EBE073009821464FEAE074B8EB00009C
:1004900061EB0401E9E783F000435BE781F0004191
:1004A00058E72DE9FE4F81EA030404F0004421F0EF
:1004B000004100944FF0000B23F0004350EA010488
:1004C0005ED052EA03045BD0C3F30A54C1F30A5569
:1004D0002C44A4F2F3340194A0FB0254C1F31301A1
:1004E00041F48011C3F3130343F4801301FB02446E
:1004F00000FB034E840A970A44EA815447EA835773
:10050000A4FB076802958D0A05FB07854FEA932C2B
:1005100004FB0C542705029D4FEA065847EA16379C
:10052000B5EB08056EEB070C870E920E47EA8117B4
:1005300042EA8312A7FB0201B6EB0B0164EB000455
:100540002B0D43EA0C335E1844EB1C50DA4651463F
:10055000E7FB0201C5F313044FEA0B3343EA1453DC
:100560004FEA0432019C43EA0603A4F10C0402940E
:10057000009CCDE900B400F05BF903B0BDE8F08F5A
:1005800000200146F9E72DE9F04D81EA030404F06B
:10059000004B21F0004514464FF0000A23F00041C3
:1005A00050EA050220D054EA01021DD0C5F30A57D3
:1005B0000246C5F31303C1F31300C1F30A5640F416
:1005C000801543F48013A7EB0608101BD64608F2EB
:1005D000FD3873EB050002D308F1010801E0921821
:1005E0005B41B8F1000F03DA00200146BDE8F08D51
:1005F00000204FF48011064684460EE0171B73EB73
:10060000050705D3121B63EB050306434CEA010CF7
:1006100049084FEA300092185B4150EA0107EDD1DA
:1006200052EA030012D082EA040083EA050108437B
:1006300005D0101BAB4106D20122002306E00022A8
:100640004FF0004302E06FF0010253101AEB060076
:100650004CEB085110EB0A0041EB0B01BDE8F04DEB
:1006600000F0D7B8C10F80EAE0700844CA079623AB
:10067000002100F0A0B800F0004230F000400AD0A5
:10068000C10D01F56071C0F3160042EA0151C208C4
:1006900040071143704700200146704701F00043B6
:1006A00030B421F0004150EA010206D00A0DA2F553
:1006B0006072C1F31301002A02DC30BC00207047D5
:1006C000440F44EAC104C100E01830BC00EBC25042
:1006D00000F068B830B50B46014600202022012406
:1006E00009E021FA02F59D4205D303FA02F5491B00
:1006F00004FA02F52844151EA2F10102F1DC30BD16
:100700002DE9F05F0546002092469B468846064646
:10071000814640241BE02846414647462246FFF7D3
:1007200023FD53465A46C01A914110D3114618462C
:10073000224600F016F82D1A67EB01084F462246B4
:100740000120002100F00DF817EB00094E41201E9A
:10075000A4F10104DFDC484631462A464346BDE8A1
:10076000F09F202A04DB203A00FA02F100207047B3
:100770009140C2F1200320FA03F3194390407047DF
:10078000202A06DBCB17203A41FA02F043EAE07355
:1007900006E041FA02F3D040C2F120029140084342
:1007A000194670470029A8BF7047401C490008BF80
:1007B00020F00100704710B4B0FA80FC00FA0CF091
:1007C00050EA010404BF10BC704749B1CCF12004C9
:1007D00021FA04F411FA0CF118BF01212143084356
:1007E000A3EB0C01CB1D4FEA00614FEA102042BF82
:1007F000002010BC704700EBC35010440029A4BF78
:1008000010BC7047401C490008BF20F0010010BC1C
:10081000704710B5141E73F1000408DA401C41F152
:10082000000192185B411A4301D120F0010010BD74
:100830002DE9F04D92469B4611B1B1FA81F202E0EA
:10084000B0FA80F220329046FFF78BFF04460F4645
:1008500040EA0A0041EA0B0153465A46084313D0C6
:10086000114653EA010019D0C8F140025046FFF783
:100870007BFC05460E46504659464246FFF771FF3F
:10088000084305D0012004E020463946BDE8F08D3C
:100890000020054346EAE0762C4337430A98630577
:1008A000E40AA0EB08000022FD0A44EA47540A309B
:1008B00002D500200146E9E7010510196941DDE98B
:1008C000084500196941BDE8F04DA2E770B521F077
:1008D000004303430CD0C1F30A550024D5EB0405B3
:1008E00064EB0403D617AD1AB34102DB00200146C6
:1008F00070BD201841EB025170BDC1F30A52C1F323
:10090000130140F2FF3341F480119A4202DA0020D1
:100910000146704740F233439A42A2F2334202DC6E
:100920005242FFF721BCFFF71CBF000030B5041E88
:1009300071F1000404DB4FF00044404264EB01011C
:10094000141E73F1000405DB1C464FF000435242B5
:1009500063EB0403994208BF904230BD064C074D3B
:1009600006E0E06840F0010394E80700984710347F
:10097000AC42F6D3FFF7E0FB703600089036000873
:100980002DE9F04D00231A461B1A8A4103DB002093
:100990000146BDE8F08DC1F30A52C1F3130141F4E1
:1009A00080154FF0000BD10702D100186D41521E87
:1009B0000027044640F2FF11384601EB620A3E462A
:1009C0008046024600204FF48011FFF7CDFBC2198C
:1009D0007141BB1846EB0100B4EB030C75EB000C46
:1009E00004D3E41A65EB000517460E46241908F1F6
:1009F00001006D4180463428E3DDF91946EB06001D
:100A0000091BA84103D24FF0FF32134601E0002238
:100A100013461BEB070046EB0A51BDE8F04DFFF70C
:100A2000F8BEFEE7704772B6FEE7000070B50446F8
:100A300000F010F90546601C02D004480078044418
:100A400000F008F9401BA042FAD370BD4800002016
:100A50002DE9F84FDFF8C891002409F1040A0AF1E2
:100A6000040B23460F270BF1040ED1E00125A5400E
:100A700006EA0502AA4276D1DFF8A8C14E68A6EBC5
:100A80000C0866452BD00DDC032E34D005DC36B3C4
:100A9000012E19D0022E2FD11BE0112E16D0122EAE
:100AA0002AD119E0B8F5881F19D006DCB8F5803FC7
:100AB00015D0B8F5801F1FD111E0B8F5001F0ED07A
:100AC000B8F5041F18D10AE0CB6815E0CB681B1DF0
:100AD00012E0CB6808330FE0CB680C330CE08B6876
:100AE0002BB1012B4FF0080303D0456104E0042330
:100AF00002E0056100E00023FF2A01D8064601E07C
:100B000000F104064FEA840501D9A5F12005D6F8C5
:100B1000008007FA05FC28EA0C0803FA05F548EA04
:100B20000508C6F800804D68ED0070D53E4DAE69F1
:100B300046F00106AE61AD6924F0030605F001053B
:100B400000953A4D06EB050CDCF80850A607360F69
:100B500007FA06F825EA0805DFF8D480404503D1F6
:100B60004FF0000825E052E0DFF8C880404502D190
:100B70004FF001081DE0DFF8C080404502D14FF082
:100B8000020816E0DFF8B480404502D14FF00308B8
:100B90000FE0DFF8AC80404502D14FF0040808E0D8
:100BA000DFF8A080404502D14FF0050801E04FF08A
:100BB000060808FA06F848EA0508CCF808804D68E7
:100BC000D9F80060ED034D4601D5164300E0964389
:100BD0002E604D68DAF80060AD03554601D5164326
:100BE00000E096432E604D68DBF80060ED025D4644
:100BF00001D5164300E096432E604D68DEF8006094
:100C0000AD02754601D5164300E096432E60641C84
:100C10000A681646E2407FF429AFBDE8F88F00006D
:100C200000040140000011100010024000000140CB
:100C300000080140000C0140001001400014014078
:100C400000180140001C01400AB10161704709040D
:100C5000FBE7000001488068704700004800002062
:100C60000248816802781144816070474800002082
:100C7000074810B5016841F010010160032000F041
:100C800067F8002000F006F800F024F8002010BDFE
:100C90000020024070B50D4D04464FF47A7128785B
:100CA000B1FBF0F00A490968B1FBF0F000F014FD67
:100CB00048B9102C07D200222146501E00F028F817
:100CC00000206C6070BD012070BD00004800002055
:100CD000540000200C4808B5816941F00101816190
:100CE000816901F001010091C16941F08051C16148
:100CF000C06900F0805000900448416821F0E06134
:100D000041F00071416008BD001002400000014048
:100D1000F0B40E4B1B680C46C3F30223C3F1070566
:100D2000042D00D90425191D072901D2002300E054
:100D3000DB1E012606FA05F1491E214099409E401E
:100D4000761E16403143F0BC01F0A0BA0CED00E075
:100D5000064900F0070208684FF6FF03184040EA12
:100D60000220034A10430860704700000CED00E0C9
:100D70000000FA052DE9F0470F46050061D0434E0B
:100D8000306800F00700B84209D2306820F0070050
:100D900038433060306800F00700B84251D128680D
:100DA0003B4C810712D5400703D5606840F4E060F2
:100DB00060602878000703D5606840F46050606088
:100DC0006068A96820F0F000084360602878C007D8
:100DD00028D06868012810D02168022810D089071F
:100DE00000292EDA616821F0030101436160FFF7F9
:100DF00031FF804641F288390DE021688903EFE731
:100E00008901EDE7FFF726FFA0EB0801494502D96C
:100E10000320BDE8F0876068696800F00C00B0EB63
:100E2000810FEFD1306800F00700B8420BD930686D
:100E300020F0070038433060306800F00700B84207
:100E400001D00120E5E72878400705D56068E9680A
:100E500020F4E060084360602878000706D56068E9
:100E6000296920F4605040EAC100606000F038F861
:100E70006168084AC1F30311515CC8400649086023
:100E800006480068FFF706FF0020C2E70020024086
:100E90000010024064350008540000204C0000207F
:100EA0000448054900684968044AC1F30221515CBD
:100EB000C8407047540000200010024074350008FC
:100EC0000448054900684968044AC1F3C221515CDD
:100ED000C8407047540000200010024074350008DC
:100EE00012A185B00FC98DE80F0014A0144A006844
:100EF00004905168134801F00C03042B10D0082B08
:100F00000ED1C1F38343C9031DF803000AD551680C
:100F100004AAC1F34041515C0A4A5043B0FBF1F0CE
:100F200005B0704708494843FAE70000020304058A
:100F3000060708090A0B0C0D0E0F10100102000025
:100F40000010024000127A0000093D002DE9F84F20
:100F5000040070D02078C04DC00749D06868C0F345
:100F60008100012807D06868C0F38100022809D1F8
:100F70006868C00306D52868800339D560680028F2
:100F8000E7D035E06068B0F5803F0BD010B1B0F528
:100F9000A02F11D0286820F480302860286820F421
:100FA000802002E0286840F480302860606890B1BA
:100FB000FFF750FE06460AE0286840F480202860CB
:100FC000F0E700BFFFF746FE801B642873D828684F
:100FD0008003F7D50CE0FFF73DFE064605E000BFB5
:100FE000FFF738FE801B6428F0D828688003F7D408
:100FF00020789A4E80074FF001094FF0000839D54C
:10100000686810F00C0F07D06868C0F381000228F0
:1010100009D16868C00306D42868800714D5206900
:10102000012808D110E02069B0B1C6F80090FFF7A0
:1010300011FE074605E00AE1FFF70CFEC01B02287F
:10104000C4D828688007F7D52868616920F0F800BF
:1010500040EAC10028600DE0C6F80080FFF7FAFD05
:10106000074604E0FFF7F6FDC01B022823D82868D6
:101070008007F7D4207800072CD57948A169D9B129
:10108000C0F80090FFF7E6FD074604E0FFF7E2FD39
:10109000C01B02280FD8686A8007F7D571484FF443
:1010A000FA510068B0FBF1F0009000BF0098411EBB
:1010B0000091FAD20EE080E0C0F80080FFF7CAFD90
:1010C000074604E0FFF7C6FDC01B022875D8686A12
:1010D0008007F7D42078400760D5E8690027C00072
:1010E00008D4E86940F08050E861E869012700F021
:1010F000805000905C480168C90513D4016883469C
:1011000041F480710160FFF7A5FD824606E000BF53
:10111000FFF7A0FDA0EB0A0064284ED8DBF8000022
:10112000C005F5D5E06801280AD008B1052813D01C
:10113000286A20F001002862286A20F0040002E0FA
:10114000286A40F001002862E06841F2883B98B1CB
:10115000FFF780FD82460BE0286A40F00400286219
:10116000EEE700BFFFF776FDA0EB0A0159455AD81C
:10117000286A8007F6D50CE0FFF76CFD824605E093
:10118000FFF768FDA0EB0A0159454CD8286A800793
:10119000F6D41FB1E86920F08050E861E06988B3B7
:1011A0006968C1F38101022944D00228C6F8608031
:1011B00004D0FFF74FFD044638E034E0FFF74AFD66
:1011C000074604E0FFF746FDC01B02282BD828681D
:1011D0008001F7D4206AB0F5803F05D16868A16826
:1011E00020F4003008436860D4E9080108436968C6
:1011F00021F4741108436860C6F86090FFF72AFD77
:10120000044606E025E000BFFFF724FD001B02288E
:1012100009D828688001F7D51BE000BFFFF71AFD49
:10122000001B022802D90320BDE8F88F286880013E
:10123000F4D40EE00128F7D06868226A00F4803107
:10124000914204D1616A00F47010884201D00120FB
:10125000EAE70020E8E700000010024000004242F8
:1012600080044242540000200070004070B5040029
:1012700009D0606A002540B125616561A56294F8D6
:10128000510040B10CE0012070BD6068B0F5827F74
:10129000F4D0E561F2E784F85050204600F040F8C1
:1012A000022084F851002068016821F040010160AB
:1012B000A088218900F4827001F404410843A189C7
:1012C00001F400610843217C01F002010843217D03
:1012D00001F001010843218B01F400710843217FD3
:1012E00001F03801084394F8201001F08001084310
:1012F000218D01F40051084321680860A069042190
:1013000001EA1040216848602068C16921F4006149
:10131000C1616565012084F85100002070BD0000A6
:1013200030B585B0002400940194029403940068C1
:101330001449884223D11448816941F48051816164
:10134000816901F480510491816941F00401816156
:1013500080690E4D00F004000490A020009002204F
:1013600001900320039069462846FFF771FB402057
:10137000CDE90004694628460294FFF769FB05B0F1
:1013800030BD000000300140001002400008014064
:101390002DE9F84F044690F8500000271D461646E8
:1013A000894601280DD04FF0010B84F850B0FFF7AB
:1013B00051FC804694F85100BA46012804D0022717
:1013C00093E00220BDE8F88FB9F1000F73D0002E32
:1013D00071D0032084F85100C4F854A0C4F83090B0
:1013E000A686E686C4F838A0A4F83CA0A4F83EA0DF
:1013F000C4F844A0C4F840A0A068B0F5004F09D1DB
:101400002068016821F0400101602068016841F412
:101410008041016020680168490603D4016841F0F9
:1014200040010160E068B0F5006F606803D030B340
:10143000012E24D041E008B1012E1CD1206B21687F
:101440000088C86006E020688168890709D5216B9B
:101450000988C160206B801C2063E08E401EE086FE
:1014600009E0FFF7F7FBA0EB0800A84202D3681CD5
:1014700001D031E07DB3E08E0028E4D120E0206B84
:1014800021680078087306E020688168890709D51B
:10149000216B09780173206B401C2063E08E401E95
:1014A000E0860AE0FFF7D6FBA0EB0800A84203D3D2
:1014B000681C02D010E017E06DB1E08E0028E3D187
:1014C00042462946204600F08CFD08B12020606588
:1014D000A06818B106E0FFE7032706E02068C168AE
:1014E00080680090606D00B1012784F851B084F8E5
:1014F00050A0384666E72DE9F84F044690F85000B2
:1015000000270A9E1D4692468B464FF0010901288E
:101510000ED0012084F85000FFF79CFB804694F821
:101520005100616801280CD0B1F5827F07D102E03B
:101530000220BDE8F88FA16809B9042801D002276C
:10154000C2E0BBF1000F27D0BAF1000F24D01DB3C9
:1015500094F85100042802D0052084F8510000209E
:101560006065C4F838A0E587A587C4F830B0E58683
:10157000A5862064606420680168490603D4016878
:1015800041F040010160E068B0F5006F606805D08F
:10159000E8B3012D46D07FE0012795E008B1012D89
:1015A00039D1206B21680088C860206B801C2063C3
:1015B000E08E401EE0862EE02068816889070FD506
:1015C000E18E69B1B9F1010F0AD1216B0988C160BF
:1015D000206B801C2063E08E401EE0864FF00009E7
:1015E00020688168C9070CD0E18F51B1C068A16B38
:1015F0000880A06B801CA063E08F401EE0874FF046
:101600000109FFF727FBA0EB0800B04200E009E06A
:1016100001D3701C50D1E08E0028CDD1E08F00287E
:10162000CAD13FE0206B216800780873206B401C12
:101630002063E08E401EE0862EE0206881688907E6
:101640000FD5E18E69B1B9F1010F0AD1216B09788B
:101650000173206B401C2063E08E401EE0864FF03B
:10166000000920688168C9070CD0E18F51B1C068BA
:10167000A16B0870A06B401CA063E08F401EE08748
:101680004FF00109FFF7E6FAA0EB0800B04202D3E1
:10169000701C01D010E07EB1E08E0028CDD1E08F2B
:1016A0000028CAD142463146204600F09AFC28B1B3
:1016B00001272020606507E0032705E0A06818B92E
:1016C0002068C16880680090012084F851000020E3
:1016D00084F8500038462CE710B5401EB0F1807FEA
:1016E00001D3012010BD4FF0E02460610F2160178D
:1016F00000F0CCFD0020A06107202061002010BD7B
:1017000070B5040004D094F83900002510B106E04B
:10171000012070BD84F83850204600F023F82420C2
:1017200084F839002068C16821F40051C160204666
:1017300000F0F8FC2068016921F490410161206803
:10174000416921F02A0141612068C16841F40051DA
:10175000C160E563202084F8390084F83A00002055
:1017600070BD000030B585B000240094019402944F
:10177000039400681449884224D11448816941F4D3
:1017800080418161816901F480410491816941F066
:101790000401816180690E4D00F0040004904FF453
:1017A00000700090022001900320039069462846B3
:1017B000FFF74EF92815CDE9000469462846029442
:1017C000FFF746F905B030BD003801400010024077
:1017D000000801402DE9F843044690F839001F46FF
:1017E00016460D4620284CD1C5B1BEB194F838003C
:1017F000012846D0012084F838004FF00008C4F8D2
:101800003C80212084F83900FFF724FAA684814621
:10181000E684A068B0F5805F03D004E00120BDE855
:10182000F883206928B12E465FF0000584F83880DF
:101830000EE00026FAE78021204600F0CFFCA0B998
:10184000AEB116F8010B21684860E08C401EE084C0
:10185000E08C4B464FF0000200970028EBD14FF090
:101860004001204600F0BAFC30B10320D7E735F83C
:10187000020BC0F30800E6E7202084F839000020BE
:10188000CDE70220CBE7FEE72DE9FF4FC54C8FB037
:10189000D4E90160D4F800B00190E0680090DDF870
:1018A000709059465846FEF7D9FC0C903146584680
:1018B000FEF7D4FC0B9058460199FEF7CFFC074683
:1018C00031460846FEF7CAFC099030460099FEF7FB
:1018D000C5FC019982460846FEF7C0FC0790DDE989
:1018E0000010FEF7BBFC009906900846FEF7B6FC18
:1018F0001D9905900846FEF7B1FC8046494608460A
:10190000FEF7ACFC129905460846FEF7A7FC2946EF
:10191000FEF74CFC4146FEF749FC01F095FD0546FB
:1019200001461298FEF79AFC129029464846FEF7A7
:1019300095FC1C9029461D98FEF790FC814639467F
:101940005046FEF785FC0121FEF7F8FC8246069919
:101950000B98FEF72BFC0121FEF7F0FC804609995D
:101960000C98FEF775FC0799FEF772FC0599FEF7D7
:101970001DFC054641464846FEF770FC07462946D1
:101980001C98FEF76BFC3946FEF762FC07462946B9
:101990001298FEF763FC054651464846FEF75EFC8A
:1019A0002946FEF755FC814651461C98FEF756FC29
:1019B000054641461298FEF751FC2946FEF748FCC1
:1019C000824679493846FEF749FCA4F11405A96816
:1019D000FEF7ECFB8046A86073494846FEF73EFCE4
:1019E000E968FEF7E3FBE8600B906F495046FEF7AD
:1019F00035FC2969FEF7DAFB2861099068684146E1
:101A00000590FEF72BFC8046286839460490FEF7C7
:101A100025FC0F99FEF7CAFB4146FEF7C7FB80463F
:101A20000B990598FEF71AFC054649460498FEF7FF
:101A300015FC1099FEF7BAFB2946FEF7B7FB0546E1
:101A400009990598FEF70AFC074651460498FEF7E7
:101A500005FC1199FEF7AAFB3946FEF7A7FB814664
:101A600001460098FEF7FAFB074629460198FEF763
:101A7000F5FB824686F000404146FEF7EFFB5146FB
:101A8000FEF7E6FB3946FEF7E3FB4849FEF7E6FBC7
:101A90005946FEF78BFB074629460098FEF7DEFB0A
:101AA000834649460198FEF7D9FB824639464046AF
:101AB000FEF7D4FB5146FEF779FB5946FEF7C8FB0B
:101AC0003A49FEF7CBFB3146FEF770FB82464046B3
:101AD0000099FEF7C3FB064649465046FEF7BEFB9B
:101AE000834629463846FEF7B9FB5946FEF7B0FB58
:101AF0003146FEF75BFB2D49FEF7B0FB0199FEF77F
:101B000055FB834601464046FEF7A8FB064629469C
:101B10005046FEF7A3FB054649463846FEF79EFBB6
:101B20002946FEF743FB3146FEF792FB1F49FEF7BD
:101B300095FB0099FEF73AFB05460146FEF78EFB42
:101B4000814659460846FEF789FB804651460846BD
:101B5000FEF784FB064639460846FEF77FFB314612
:101B6000FEF724FB4146FEF721FB4946FEF71EFB2C
:101B700001F06AFC064601463846FEF76FFB20601E
:101B800031465046FEF76AFB606031465846FEF724
:101B900065FBA06031462846FEF760FBE06013B0AD
:101BA000BDE8F08F380000200AD7A33B0AD7233BBB
:101BB0002DE9F047454D0446DFF81491D5E90001C1
:101BC0004FF0404842464B46FEF76BFC0646414804
:101BD0000F460068FEF746FDDFF8FCA05146FEF711
:101BE0003DFBFEF748FD32463B46FEF7B3FBFEF7F2
:101BF00055FD2060D5E9020142464B46FEF751FCF7
:101C0000064636480F460068FEF72CFD5146FEF7A3
:101C100025FBFEF730FD32463B46FEF79BFBFEF709
:101C20003DFD6060D5E9040142464B46FEF739FCB4
:101C300007462B480E460068FEF714FD5146FEF796
:101C40000DFBFEF718FD3A463346FEF783FBFEF721
:101C500025FD0026C4F8080054F82600FEF70BFD09
:101C600005EBC602761CC2E90001032EF4DB1D4819
:101C70000068FEF7F7FC1C4D2946FEF7EFFA1B4EF5
:101C80003146FEF71DFB1A4F3946FEF719FBE0609F
:101C900018480068FEF7E6FC2946FEF7DFFA3146F1
:101CA000FEF70EFB3946FEF70BFB20611248006879
:101CB000FEF7D8FC2946FEF7D1FA3146FEF700FBC5
:101CC0003946FEF7FDFA6061BDE8F087F8000020B4
:101CD000CCCCE43F0C0000203333B33E1000002096
:101CE0001400002000000020B81E494000003443CA
:101CF0003333834104000020080000202DE9FC5FFD
:101D00006848FFF755FF6748D0E90112CDE9001296
:101D100003680C3007C8FFF7B7FD6349D1E900023B
:101D2000D1E9029892460121FEF708FB494600904E
:101D3000FEF794FA04464FF040415046FEF78EFA03
:101D400006464146FEF78AFA2146FEF72FFAFEF7CD
:101D500092FC00F083FF0022544BFEF7A2FB00220E
:101D6000534BFEF710FCFEF799FC4E4C01210C3C46
:101D700020604846FEF7E2FA49460190FEF76EFA07
:101D8000054630465146FEF769FA2946FEF760FAE5
:101D90004FF07E5B5946FEF709FAFEF76CFC0E46E3
:101DA000054651460098FEF759FA07464146019804
:101DB000FEF754FA3946FEF7F9F9FEF75CFC2A46BD
:101DC000334601F093F90022384BFEF76AFB0022FC
:101DD000374BFEF7D8FBFEF761FC606001214046FF
:101DE000FEF7ACFA4146FEF739FA05464FF040419E
:101DF0004846FEF733FA4946FEF730FA2946FEF721
:101E000027FA5946FEF7D2F9FEF735FC05460E468D
:101E100041460098FEF722FA074601215046FEF798
:101E20008DFA4946FEF71AFA3946FEF7BFF9FEF772
:101E300022FC33462A4601F059F900221B4BFEF7DB
:101E400030FB00221A4BFEF79EFBFEF727FC0546EF
:101E5000A06018496068184E184F884202DC184983
:101E600088420FD92168B1F5000F03DB3046FEF739
:101E7000EFF92060216811F1FF4F03D33846FEF7D8
:101E8000E7F920600F49B54203DD2846FEF7E0F987
:101E900004E0BD4203D92846FEF788F9A060BDE8FA
:101EA000FC9F00001C0100203800002000806640DC
:101EB000D72309400000B44200003443000034C37B
:101EC0000000B4C20000B4432DE9F04186B0002404
:101ED0001F480094019402940394816941F0040125
:101EE0008161816901F004010491816941F010016F
:101EF0008161816901F010010491816941F008015B
:101F000081618069134F00F00800049000221021C5
:101F10003846FEF799FEDFF8408001220221404654
:101F2000FEF792FE10200126CDE900060225694643
:101F30003846CDE90245FEF78BFDCDE900566946EE
:101F40004046CDE90245FEF783FD06B0BDE8F081CD
:101F50000010024000100140000C0140104810B574
:101F60000E4901604FF482714160002102228160BC
:101F7000C0E9031201224261520282611022C0E9CB
:101F80000721416281620A21C162FFF76FF90028CF
:101F900003D0BDE81040FEF746BD10BD0030014043
:101FA000600000200C4810B50A4901604FF4E1318F
:101FB0004160002181600C22C160C0E9041281618E
:101FC000C161FFF79DFB002803D0BDE81040FEF77C
:101FD0002ABD10BD00380140B8000020FEE7FEE732
:101FE000704738B50B46009204460022802100F06D
:101FF00009F8002804D0606D40F0200060650320DF
:1020000038BD00002DE9F8431E4691468846044637
:10201000089DFEF71FFE401B351AFEF71BFE074604
:1020200025480068C0F3CB30684338E0701C37D0D7
:10203000FEF710FEC01BA84203D215B1009860B392
:102040002CE02068416821F0E00141606068B0F553
:10205000827F0BD1A068B0F5004F02D0B0F5806F41
:1020600004D12068016821F040010160A06AB0F548
:10207000005F09D12068016821F4005101602068E7
:10208000016841F400510160012084F851000020F2
:1020900084F850000320BDE8F8830025401E00901E
:1020A0002068816838EA010004D000214945BDD18B
:1020B0000020F0E70121F9E7540000207047FEF707
:1020C000CFBD30B58FB028216846FEF764F81421E3
:1020D0000AA8FEF760F801210804CDE900100024E9
:1020E000029402250491CDE907504FF4E0100990C5
:1020F0006846FEF72BFF08B172B6FEE70F20CDE968
:102100000A054FF48060CDE90C4002210AA80E9424
:10211000FEF730FE002801D072B6FEE70FB030BDEA
:102120007047000070B5044600680169E26821F458
:102130004051114301612169A06808436169084366
:102140002168CA6841F20C639A430243CA6020685E
:102150004169A26921F44071114341611E4920681F
:10216000884202D1FEF7ACFE01E0FEF799FE00EBDB
:10217000C00101EB0012606864218000B2FBF0F343
:10218000B3FBF1F36FF018067343B2FBF0F5B2FB4B
:10219000F0F605EB8305322303EB0515B5FBF1F5EE
:1021A000B6FBF1F605F0F00505EB0615B2FBF0F60F
:1021B000B2FBF0F0B0FBF1F06FF01802504306EB09
:1021C000800003EB0010B0FBF1F0216800F00F007D
:1021D0002844886070BD0000003801402DE9F041BE
:1021E000984617460E460446069D1DE0681C1BD007
:1021F0002DB1FEF72FFDA0EB0800A84214D92068EE
:10220000C16821F4D071C1602068416921F00101E9
:102210004161202084F8390084F83A00002084F8D5
:1022200038000320BDE8F0812068006836EA00002D
:1022300004D00020B842D9D00020F3E70120F9E70C
:10224000FEE700000FB4054B10B503A9044A02983D
:1022500000F06CF910BC5DF814FB00006D32000852
:1022600058000020490050EAC12018BF04204A0D40
:1022700018BF40F0010040F2FF72B2EB515F08BF9F
:1022800040F00200012808BF052070470907090E29
:10229000002804DB00F1E02080F80014704700F013
:1022A0000F0000F1E02080F8141D70472DE9F04187
:1022B0004F1E00EBC7010446D1E9000115461E463A
:1022C00037F006020DD02A463346FEF7EAF87F1EA5
:1022D00004EBC703D3E90023FEF73CF837F006020E
:1022E000F1D1022F25D0042F13D0062F18BFBDE83F
:1022F000F0812A463346FEF7D4F8D4E90A23FEF7E4
:1023000029F82A463346FEF7CCF8D4E90823FEF72D
:1023100021F82A463346FEF7C4F8D4E90623FEF72F
:1023200019F82A463346FEF7BCF8D4E90423FEF731
:1023300011F82A463346FEF7B4F8D4E90223FEF733
:1023400009F82A463346FEF7ACF8D4E90023BDE885
:10235000F041FDF7FFBF0122FEF7B8BAFDF7FABF63
:102360000022134610461146FEF70DB9024A00201E
:102370001107FEF7ABBA000001FDFFFF02E008C83D
:10238000121F08C1002AFAD170477047002001E0EF
:1023900001C1121F002AFBD17047000001490860EB
:1023A000704700005C0000202DE9FF5F82B0002133
:1023B000DDE90430020DDDF840B0034318D044F6E7
:1023C0001050A2F2FF3242431514119801281FD079
:1023D000A5EB0B00401C5FEA000A4FF000064E4FD1
:1023E000DFF83891B046504615D5CAF1000413E025
:1023F000119801244AA3012801D16FEA0B01029828
:10240000119AC0E90031C0E9024206B0BDE8F09F70
:10241000CBF10000DFE704460021404A491842EBB7
:102420000450CDE9001012E0E00707D032463B46E9
:1024300040464946FEF735F88046894632463B46D7
:1024400010461946FEF72DF806460F466410002C7C
:10245000EAD1DDE90401DDE90023BAF1000F06DA73
:10246000FEF71FF842464B46FEF71BF805E0FEF765
:102470008AF842464B46FEF786F804460E4600228E
:10248000284BFEF753FA03D84FF0FF30014607E020
:102490000022254B20463146FDF75CFFFEF72DFA62
:1024A000102409E0002C0ADB0A220023FEF728F999
:1024B000039B30321A55641E50EA0102F2D1641CAB
:1024C000039AC4F111031444119A012A03D0012282
:1024D00008430DD10AE0084304D000204FF0110B4F
:1024E000119072E7A3EB0B056D1E0DE05B4504DD5B
:1024F0004FF0000205F1010504E003DA4FF000029D
:10250000A5F10105002AECD002981199C0E9023129
:10251000C0E9004579E70000000014400000F03FEA
:10252000300000000000F0430000E03F2DE9FF4FC5
:1025300095B09B468946064600250FE2252877D1AF
:1025400000242746F84A0121059400E0044316F8C8
:10255000013F203B01FA03F01042F7D130782A28DE
:1025600011D06FF02F033078A0F13002092A16D86D
:10257000059A44F0020402EB820203EB420210448B
:10258000761C0590EFE759F8042B0592002A03DA30
:10259000504244F40054059044F00204761C307814
:1025A0002E2816D116F8010F44F004042A280DD065
:1025B0006FF02F023078A0F13003092B09D807EB18
:1025C000870302EB4303C718761CF3E759F8047B33
:1025D000761C30786C280FD006DC4C2817D0682881
:1025E0000DD06A2814D104E0742810D07A280FD1B5
:1025F0000DE044F400140AE044F4801401E044F4D3
:1026000040147278824202D104F58014761C761C44
:10261000307866280BD013DC582877D009DC0028E6
:1026200075D04528F6D04628F4D047281AD19DE128
:1026300018E0632835D0642879D0652812D195E157
:10264000702873D008DC6728F1D069286FD06E2815
:102650000DD06F2806D1B5E073282CD0752875D021
:10266000782874D05A46179990476D1C75E1C4F3C9
:102670000250022809D003280DD0D9F800100428F0
:102680000DD00D6009F1040967E1D9F80010EA17CF
:10269000C1E90052F6E7D9F800100D80F2E70D709D
:1026A000F0E719F8041B8DF8001000208DF80100E8
:1026B000EA46012003E059F804AB4FF0FF30610710
:1026C0004FF0000102D40DE008F101018846B94243
:1026D0000FDA8045F8DB1AF808100029F4D108E079
:1026E00008F1010188468142FADB1AF80810002936
:1026F000F6D105985B46A0EB080721463846179AA5
:1027000000F094FA284400EB080507E04DE029E1C9
:102710000DE01AF8010B5A4617999047B8F10108D5
:10272000F7D25B4621463846179A13E142E00A2267
:102730000092C4F302524FF0000A022A08D059F85E
:1027400004CB032A4FEAEC710AD00DE029E02AE01D
:1027500009F1070121F00702F2E802C1914609E000
:102760000FFA8CFC4FEAEC71042A03D14FFA8CFC6F
:102770004FEAEC71002907DA0A460021DCF1000C6F
:1027800061EB02012D2202E0220504D52B228DF8F7
:102790000420012203E0E20701D02022F7E790465F
:1027A00059E00A2102E010220DE010214FF0000A4A
:1027B00000910BE010224FF0000A44F004040827B7
:1027C000009203E008224FF0000A0092C4F3025284
:1027D000022A05D059F804CB0021032A08D009E0C9
:1027E00009F1070121F00702F2E802C1914605E074
:1027F0001FFA8CFC042A01D10CF0FF0C4FF00008EA
:10280000220728D5702806D0009B83F0100353EAD6
:102810000A0305D00EE040228DF80420012208E0D2
:102820005CEA010206D030228DF804208DF8050004
:1028300002229046009B83F0080353EA0A030AD160
:102840005CEA010201D1620705D530228DF804202F
:102850004FF001087F1E582804D034A003900EA822
:1028600002900DE036A0F9E753466046009AFDF766
:1028700047FF84460398825C0298401E02900270D3
:102880005CEA0100F0D1029806A9081A00F1200ABA
:10289000600702D524F4803400E00127574502DDAB
:1028A000A7EB0A0000E0002000EB0A010090059869
:1028B0004144401A0590E00306D45B462146179A2E
:1028C000059800F0B3F90544002706E001A85A4630
:1028D000C05D179990476D1C7F1C4745F6DBE003F0
:1028E0000CD55B462146179A059800F09FF90544E0
:1028F00004E030205A46179990476D1C0099481EF5
:1029000000900029F5DC08E0029802995A46007808
:10291000491C0291179990476D1CBAF10001AAF168
:10292000010AF1DC65E10000092801003031323391
:1029300034353637383961626364656600000000FB
:1029400030313233343536373839414243444546E5
:102950000000000000F058F90544761C307800288B
:102960007FF4ECAD19B02846BDE8F08F620700D4C3
:10297000062709F1070222F0070CFCE80223E146D2
:1029800003F000485FEA080C02D00FF2702C0DE053
:102990005FEA045C02D50FF2682C07E05FEAC47CB2
:1029A00002D00FF2602C01E0AFF2700C4FF0FF3854
:1029B00023F00043CDF850C065280CD006DC452834
:1029C00009D046281DD047283DD13DE0662818D0C3
:1029D00067287ED138E00021112F01DB112000E0B3
:1029E000781CCDE9000106A90EA8FFF7DDFCDDE9A2
:1029F0000F010E9A03910021009207F1010A049140
:102A00004DE04FF000400097CDE9011006A90EA857
:102A1000FFF7CAFCDDE90F0203920E9B1199002219
:102A2000DDF80CA00093049211B9791C00EB010AA7
:102A3000B7EB0A0004D4C0F1FF3007F1010A04909B
:102A4000AAEB0700019044E0012F00DA01270021E2
:102A5000112F01DD112000E03846CDE9000106A963
:102A60000EA8FFF7A1FCDDE90F010E9A03910021EA
:102A700004910092BA4621070CD40399514500DA1B
:102A80008A46BAF1010F05DD009AAAF10101515CF5
:102A9000302908D0B84202DA10F1040F06DA012119
:102AA000CDE9011015E0AAF10101E9E7002805DCF4
:102AB000049901440491AAEB000102E0411C514534
:102AC00000DD8A460499401A401C01904FF00040F6
:102AD0000290200704D40198504501DBCDF8048012
:102AE00000208DF84F0002980DF14F07B0F1004F14
:102AF00025D02B200E9002984FF0020800280CDA07
:102B0000404202902D200E9007E00A210298FDF726
:102B1000E1FD3031029007F8011DB8F10001A8F184
:102B20000108F2DC02980028EFD1791E0E98087097
:102B3000307800F0200040F0450007F8020D12A8A0
:102B4000C01B00F107081498007800B1012000EBC9
:102B50000A01019801EBE07105984144401A401EBA
:102B60000590E00306D45B462146179A059800F0CD
:102B70005DF805441498007818B15A4617999047A3
:102B80006D1CE00324D55B462146179A059800F09A
:102B90004DF805441CE00498002807DBDDE903013B
:102BA000884203DD0098405C179901E017993020B6
:102BB0005A469047049805F10105401C049001987D
:102BC000401E019004D12E205A46179990476D1C43
:102BD000BAF10001AAF1010ADDDC05E017F8010BEA
:102BE0005A46179990476D1CB8F10001A8F10108E9
:102BF000F4DC5B462146179A0598ABE62D000000F1
:102C00002B000000200000002DE9F04104460025C3
:102C10001E461746880404D405E039462020B047F4
:102C20006D1C641EF9D52846BDE8F0812DE9F04100
:102C3000044600251E469046C80301D5302700E013
:102C40002027880404D505E041463846B0476D1C6E
:102C5000641EF9D52846BDE8F08100002DE9F04D4D
:102C60008D4F21F0004A86B005460C46BA452ADB56
:102C7000AAEB070028430AD08848824501DC1AD114
:102C8000CDB106B02846BDE8F04DFFF764BB844ADD
:102C9000844B2846FDF705FC07460E46824A834BC7
:102CA00028462146FDF7FDFB06B03A463346BDE80F
:102CB000F04DFDF74FBB0120FFF770FB06B0BDE8FC
:102CC000F04DFFF74DBB7A48824542DABAF1795FA1
:102CD0000BDA2846FFF7C6FA042808BFFFF746FBC1
:102CE000284606B02146BDE8F08D2A460B46104620
:102CF000FDF7D7FB834602466E480E460B4606217B
:102D00007844FFF7D3FA5A463346FDF7CAFB8046AC
:102D100069488A465A46334604217844FFF7C6FA82
:102D20005A463346FDF7BDFB00223B46FDF712FB3A
:102D300002460B4640465146FDF725FC2A462346EF
:102D4000FDF7AFFB06B02A462346BDE8F04DFDF780
:102D500001BB284624F0004100223D463B46FDF7DA
:102D60009DFB4FF0FF32FDF7B1FD0646024653488A
:102D70000F460B4606217844FFF798FA32463B4649
:102D8000FDF78FFBCDE900014D4832463B4604215B
:102D90007844FFF78BFA32463B46FDF782FB002270
:102DA0002B46FDF7D7FA834602913046394600F0AC
:102DB000B3FB804643480D46504517DCDDE9000172
:102DC0005A46029BFDF7DFFB42462B46FDF769FBA7
:102DD00042462B46FDF7BEFA0122FDF777FD304A49
:102DE000304BFDF758FB304A304B4CE04FF0000AB7
:102DF00052460B464046FDF7ADFACDE90310524668
:102E00002B4610461946FDF74CFB32463B46FDF774
:102E100045FBDDE90332FDF7B6FB06460F46DDE96B
:102E200000015A46029BFDF7AEFB8346009101224A
:102E300030463946FDF74AFD194A1A4BFDF72EFB7D
:102E400006460F46012240462946FDF73FFD5A46F9
:102E5000009BFDF726FB32463B46FDF71CFB064672
:102E60000F46012250462946FDF730FD0E4DDFF892
:102E700058802A464346FDF711FB32463B46FDF794
:102E80000DFB2A464346FDF709FB002CD8BF81F015
:102E9000004106B0BDE8F08D0000F03F0000F07F7B
:102EA000075C143326A6913C182D4454FB21F93FAE
:102EB0000000E03F7C0800009208000006080000C7
:102EC0001C0800003333EF3FFB21E93F2DE9F84FA9
:102ED00004460D4621F0004000917349814211DC07
:102EE0007249884201DC06D12CB120462946BDE852
:102EF000F84FFFF730BA6E48002DCCBF6D496E49D0
:102F0000BDE8F88F6D49814211DD6D498142D8BF1E
:102F10004FF0FF366DDD20462946FFF7A3F9042860
:102F200008BFFFF723FA20462946BDE8F88F654918
:102F3000654F25F00045814233DD6449814219DD4A
:102F4000002632464FF0804320462946FDF702FA1C
:102F500080468A46012220462946FDF7B7FC00221A
:102F60003B46FDF798FA42465346FDF70CFB0446F4
:102F70000D463EE001260022BA463B462046294641
:102F8000FDF7E8F980460F460022534620462946C1
:102F9000FDF781FA42463B46FDF7F5FA04460D4639
:102FA00027E04B4981421BDDDFF828A102260022E1
:102FB000534620462946FDF774FA00223B46FDF7AA
:102FC000C9F980460F460022534620462946FDF7A0
:102FD00062FA42463B46FDF7D6FA04460D4608E043
:102FE000032622462B4600203B49FDF7CCFA044637
:102FF0000D4622462B4610461946FDF752FA8B46DF
:10300000824602460B46FDF74CFA07460246334815
:1030100088460B4606217844FFF748F952465B463E
:10302000FDF73FFA82462E488B463A464346052135
:103030007844FFF73BF93A464346FDF732FA024639
:103040000B46002E504659460CDAFDF783F922460E
:103050002B46FDF726FA01B022462B46BDE8F04F7D
:10306000FDF71CBAFDF776F922462B46FDF719FA53
:103070001C4A7A4402EBC603D3E90023FDF70BFA9E
:1030800022462B46FDF707FA174A7A4402EBC6039D
:10309000D3E90023FDF702FA009A002AB8BF81F0B5
:1030A0000041BDE8F88F0000000010440000F07FF0
:1030B000182D4454FB21F93FFB21F9BF0000DC3FF0
:1030C0000000203E0000F33F0000F03F0000E63F1C
:1030D000008003400000F83F0000F0BF1E06000023
:1030E000DC0500007A050000420500002DE9F04DE6
:1030F0009446CCF1000423F000464CEA0404524FFD
:1031000046EAD4749A46884621F00042BC4206D86A
:10311000454240EA050442EAD474BC4204D9BDE801
:10312000F04D6246FFF71AB9AAF14055A5F17F6547
:1031300055EA0C040BD0022404EAAA74434DDFF8CC
:1031400010E144EAD87452EA000B04D00CE0BDE868
:10315000F04DFFF7BBBE002C14BF012CBDE8F08D75
:10316000022C30D0032C32D056EA0C0B0AD0BE42CF
:1031700020D1BA4209D126F0804622F0804233465F
:10318000114617E000291ADB25E0DFF8C8B0FB4440
:10319000002C04BFDBE90001BDE8F08D012C02BF6B
:1031A000DBE9000181F00041BDE8F08D022C0AD07E
:1031B000032C0CD0BA4212D1B8F1000F0BDA23481D
:1031C0002549BDE8F08D28462449BDE8F08D284604
:1031D0007146BDE8F08D1D482149BDE8F08D921B78
:1031E00012153C2AC4BF19481D490EDCBAF1000F64
:1031F000BEBF12F13C0F0020014606DB6246FDF720
:10320000C2F921F00041FFF761FE002C08BFBDE8C4
:10321000F08D012C04BF81F00041BDE8F08D114A12
:10322000114B022C07D0FDF736F92A46BDE8F04DC8
:103230000A4BFDF730B9FDF72EF92A46BDE8F04DEF
:10324000064BFDF72BB900000000F07F182D445409
:10325000FB2109C0D6040000FB21F9BFFB21094076
:10326000FB21F93F075C143326A6A13C38B5044680
:103270008DF800000223012269460248FEF7AAFAEF
:10328000204638BDB80000201CB5BB208DF80000DA
:103290000721684600F09CF8BDF8010040BA01B271
:1032A0000648C160BDF8031049BA09B20161BDF812
:1032B000051049BA09B241611CBD000000000020A0
:1032C0001CB5C3208DF800000721684600F080F887
:1032D000BDF8010040BA01B206480160BDF8031014
:1032E00049BA09B24160BDF8051049BA09B2816016
:1032F0001CBD00000000002008B500208DF8000073
:103300000A20FDF793FB00F02CF880216B2000F0E1
:103310007DF80220FDF78AFB69466B2000F032F849
:103320009DF800004128F7D101216B2000F06EF8D4
:1033300000216C2000F06AF801211A2000F066F8E4
:103340000721192000F062F818211B2000F05EF818
:1033500010211C2000F05AF803211D2000F056F81F
:1033600008BD08B500208DF800006946752000F002
:1033700009F80A20FDF75AFB9DF800001228F4D145
:1033800008BD00007CB5104E0C46054600221021F9
:103390003046FDF759FC45F080008DF80400207898
:1033A0008DF805004FF4FA7001AA0090022311462F
:1033B0000648FEF7A0F8012210213046FDF744FC34
:1033C0009DF8050020707CBD0010014060000020C9
:1033D000F8B50C4E0D460446002210213046FDF78C
:1033E00033FC4FF4FA70224600902B4611460648F3
:1033F000FEF781F83046BDE8F84001221021FDF7C4
:1034000023BC00000010014060000020F8B50C4E05
:103410000C460546002210213046FDF715FC8DF8BC
:1034200000508DF801404FF4FA73022269460548B6
:10343000FDF7AEFF012210213046FDF705FCF8BD77
:10344000001001406000002010B504464FF0FF312D
:10345000FCF774FF0849A1EB64042146FCF7FEFE6B
:103460002146FCF7FBFE4FF07F51FCF7F4FE2146AE
:10347000BDE81040FCF7F2BEDF59375F1FB5FDF71E
:10348000F7FBFEF71EFEFEF71FFDFEF78BFDFEF7B6
:1034900065FD194C002202212046FDF7D5FB4FF4B3
:1034A000FA70FDF7C3FA012202212046FDF7CCFB9A
:1034B000FFF722FF11A0FEF7C5FE124CFFF7E4FE56
:1034C000FFF7FEFEFEF71AFCA068FDF7D4F80746EA
:1034D00088466068FDF7CFF805460E462068FDF780
:1034E000CAF88DE8E00102460B4607A0FEF7AAFEE7
:1034F0000520FDF79BFAE1E7000C0140696E697455
:103500000A00000010010020252E32662C252E32E4
:10351000662C252E32660A002DE9F04106460F463C
:10352000FDF72EFA041E0D4618BF0120284320F097
:103530000040C0F17F6000F1E040C00F0ED0301CB1
:1035400018BF0120384320F00040C0F17F6000F137
:10355000E040C00F04BF0120FEF720FF20462946AF
:10356000BDE8F0810000000000000000010203043B
:103570000607080900000000010203040000000023
:10358000555555555555C53F7D6FEB0312D6D4BFE4
:103590005544880E55C1C93F3B8F68B52882A4BFEA
:1035A00088B20175E0EF493F09F7FD0DE13D023FAB
:1035B0004B2D8A1C273A03C0C88A599CE52A004033
:1035C00059018D1B6C06E6BF82922EB1C5B8B33F80
:1035D0004FBB610567ACDD3F182D4454FB21E93F2B
:1035E0009BF681D20B73EF3F182D4454FB21F93F1A
:1035F000E2652F227F2B7A3C075C143326A6813CA0
:10360000BDCBF07A8807703C075C143326A6913C4A
:10361000C4EB98999999C9BF711623FEC671BCBFB6
:103620006D9A74AFF2B0B3BF9AFDDE522DDEADBF1E
:103630002F6C6A2C44B4A2BF0D5555555555D53F36
:10364000FF8300922449C23F6E204CC5CD45B73F51
:10365000513DD0A0660DB13FEB0D76244B7BA93FC9
:1036600011DA22E33AAD903F0000000000000000B4
:103670009036000800000020600000007C23000855
:10368000F036000860000020E80400008C230008E9
:10369000000000000000000000000000000000002A
:1036A000000000000000000000000000000000001A
:1036B0000000000000004842CDCC4C3E000000005D
:1036C00000000000000000000000803F000000003B
:1036D00000000000000000000100000010000000D9
:1036E000000000000024F4000000000000000000C2
:0400000508000131BD
:00000001FF
